{
  "_format": "hh-sol-artifact-1",
  "contractName": "MerchantStaking",
  "sourceName": "contracts/MerchantStaking.sol",
  "abi": [
    {
      "inputs": [
        {
          "internalType": "address",
          "name": "_token",
          "type": "address"
        },
        {
          "internalType": "address",
          "name": "admin",
          "type": "address"
        }
      ],
      "stateMutability": "nonpayable",
      "type": "constructor"
    },
    {
      "inputs": [
        {
          "internalType": "address",
          "name": "owner",
          "type": "address"
        }
      ],
      "name": "OwnableInvalidOwner",
      "type": "error"
    },
    {
      "inputs": [
        {
          "internalType": "address",
          "name": "account",
          "type": "address"
        }
      ],
      "name": "OwnableUnauthorizedAccount",
      "type": "error"
    },
    {
      "inputs": [],
      "name": "ReentrancyGuardReentrantCall",
      "type": "error"
    },
    {
      "anonymous": false,
      "inputs": [
        {
          "indexed": false,
          "internalType": "uint256",
          "name": "amount",
          "type": "uint256"
        }
      ],
      "name": "MerchantPoolFunded",
      "type": "event"
    },
    {
      "anonymous": false,
      "inputs": [
        {
          "indexed": true,
          "internalType": "address",
          "name": "merchant",
          "type": "address"
        },
        {
          "indexed": false,
          "internalType": "uint256",
          "name": "stakeAmount",
          "type": "uint256"
        }
      ],
      "name": "MerchantRegistered",
      "type": "event"
    },
    {
      "anonymous": false,
      "inputs": [
        {
          "indexed": true,
          "internalType": "address",
          "name": "merchant",
          "type": "address"
        },
        {
          "indexed": false,
          "internalType": "uint256",
          "name": "added",
          "type": "uint256"
        },
        {
          "indexed": false,
          "internalType": "uint256",
          "name": "total",
          "type": "uint256"
        }
      ],
      "name": "MerchantStakeIncreased",
      "type": "event"
    },
    {
      "anonymous": false,
      "inputs": [
        {
          "indexed": true,
          "internalType": "address",
          "name": "merchant",
          "type": "address"
        },
        {
          "indexed": false,
          "internalType": "uint256",
          "name": "amount",
          "type": "uint256"
        },
        {
          "indexed": false,
          "internalType": "uint256",
          "name": "reward",
          "type": "uint256"
        }
      ],
      "name": "MerchantUnstaked",
      "type": "event"
    },
    {
      "anonymous": false,
      "inputs": [
        {
          "indexed": true,
          "internalType": "address",
          "name": "previousOwner",
          "type": "address"
        },
        {
          "indexed": true,
          "internalType": "address",
          "name": "newOwner",
          "type": "address"
        }
      ],
      "name": "OwnershipTransferred",
      "type": "event"
    },
    {
      "anonymous": false,
      "inputs": [
        {
          "indexed": true,
          "internalType": "address",
          "name": "merchant",
          "type": "address"
        },
        {
          "indexed": false,
          "internalType": "uint256",
          "name": "amount",
          "type": "uint256"
        }
      ],
      "name": "PaymentRecorded",
      "type": "event"
    },
    {
      "inputs": [],
      "name": "GOLD_THRESHOLD",
      "outputs": [
        {
          "internalType": "uint256",
          "name": "",
          "type": "uint256"
        }
      ],
      "stateMutability": "view",
      "type": "function"
    },
    {
      "inputs": [],
      "name": "MIN_APY_BPS",
      "outputs": [
        {
          "internalType": "uint256",
          "name": "",
          "type": "uint256"
        }
      ],
      "stateMutability": "view",
      "type": "function"
    },
    {
      "inputs": [],
      "name": "PLATINUM_THRESHOLD",
      "outputs": [
        {
          "internalType": "uint256",
          "name": "",
          "type": "uint256"
        }
      ],
      "stateMutability": "view",
      "type": "function"
    },
    {
      "inputs": [],
      "name": "SILVER_THRESHOLD",
      "outputs": [
        {
          "internalType": "uint256",
          "name": "",
          "type": "uint256"
        }
      ],
      "stateMutability": "view",
      "type": "function"
    },
    {
      "inputs": [],
      "name": "accRewardPerShare",
      "outputs": [
        {
          "internalType": "uint256",
          "name": "",
          "type": "uint256"
        }
      ],
      "stateMutability": "view",
      "type": "function"
    },
    {
      "inputs": [],
      "name": "currentAPY",
      "outputs": [
        {
          "internalType": "uint256",
          "name": "",
          "type": "uint256"
        }
      ],
      "stateMutability": "view",
      "type": "function"
    },
    {
      "inputs": [
        {
          "internalType": "uint256",
          "name": "amount",
          "type": "uint256"
        }
      ],
      "name": "fundPool",
      "outputs": [],
      "stateMutability": "nonpayable",
      "type": "function"
    },
    {
      "inputs": [],
      "name": "getMerchantCount",
      "outputs": [
        {
          "internalType": "uint256",
          "name": "",
          "type": "uint256"
        }
      ],
      "stateMutability": "view",
      "type": "function"
    },
    {
      "inputs": [
        {
          "internalType": "address",
          "name": "merchant",
          "type": "address"
        }
      ],
      "name": "getMerchantInfo",
      "outputs": [
        {
          "components": [
            {
              "internalType": "uint256",
              "name": "amount",
              "type": "uint256"
            },
            {
              "internalType": "uint256",
              "name": "since",
              "type": "uint256"
            },
            {
              "internalType": "uint256",
              "name": "rewardDebt",
              "type": "uint256"
            },
            {
              "internalType": "bool",
              "name": "registered",
              "type": "bool"
            },
            {
              "internalType": "uint256",
              "name": "totalEarned",
              "type": "uint256"
            },
            {
              "internalType": "uint256",
              "name": "paymentsProcessed",
              "type": "uint256"
            }
          ],
          "internalType": "struct MerchantStaking.MerchantStake",
          "name": "",
          "type": "tuple"
        }
      ],
      "stateMutability": "view",
      "type": "function"
    },
    {
      "inputs": [
        {
          "internalType": "address",
          "name": "merchant",
          "type": "address"
        }
      ],
      "name": "getMerchantTier",
      "outputs": [
        {
          "internalType": "uint8",
          "name": "tier",
          "type": "uint8"
        },
        {
          "internalType": "uint256",
          "name": "feeDiscountBps",
          "type": "uint256"
        },
        {
          "internalType": "uint256",
          "name": "cashbackBoostBps",
          "type": "uint256"
        }
      ],
      "stateMutability": "view",
      "type": "function"
    },
    {
      "inputs": [],
      "name": "lastRewardTime",
      "outputs": [
        {
          "internalType": "uint256",
          "name": "",
          "type": "uint256"
        }
      ],
      "stateMutability": "view",
      "type": "function"
    },
    {
      "inputs": [
        {
          "internalType": "uint256",
          "name": "",
          "type": "uint256"
        }
      ],
      "name": "merchantList",
      "outputs": [
        {
          "internalType": "address",
          "name": "",
          "type": "address"
        }
      ],
      "stateMutability": "view",
      "type": "function"
    },
    {
      "inputs": [],
      "name": "merchantRewardPool",
      "outputs": [
        {
          "internalType": "uint256",
          "name": "",
          "type": "uint256"
        }
      ],
      "stateMutability": "view",
      "type": "function"
    },
    {
      "inputs": [
        {
          "internalType": "address",
          "name": "",
          "type": "address"
        }
      ],
      "name": "merchantStakes",
      "outputs": [
        {
          "internalType": "uint256",
          "name": "amount",
          "type": "uint256"
        },
        {
          "internalType": "uint256",
          "name": "since",
          "type": "uint256"
        },
        {
          "internalType": "uint256",
          "name": "rewardDebt",
          "type": "uint256"
        },
        {
          "internalType": "bool",
          "name": "registered",
          "type": "bool"
        },
        {
          "internalType": "uint256",
          "name": "totalEarned",
          "type": "uint256"
        },
        {
          "internalType": "uint256",
          "name": "paymentsProcessed",
          "type": "uint256"
        }
      ],
      "stateMutability": "view",
      "type": "function"
    },
    {
      "inputs": [],
      "name": "owner",
      "outputs": [
        {
          "internalType": "address",
          "name": "",
          "type": "address"
        }
      ],
      "stateMutability": "view",
      "type": "function"
    },
    {
      "inputs": [
        {
          "internalType": "address",
          "name": "merchant",
          "type": "address"
        }
      ],
      "name": "pendingReward",
      "outputs": [
        {
          "internalType": "uint256",
          "name": "",
          "type": "uint256"
        }
      ],
      "stateMutability": "view",
      "type": "function"
    },
    {
      "inputs": [
        {
          "internalType": "address",
          "name": "merchant",
          "type": "address"
        },
        {
          "internalType": "uint256",
          "name": "amount",
          "type": "uint256"
        }
      ],
      "name": "recordPayment",
      "outputs": [],
      "stateMutability": "nonpayable",
      "type": "function"
    },
    {
      "inputs": [
        {
          "internalType": "uint256",
          "name": "amount",
          "type": "uint256"
        }
      ],
      "name": "registerAndStake",
      "outputs": [],
      "stateMutability": "nonpayable",
      "type": "function"
    },
    {
      "inputs": [],
      "name": "renounceOwnership",
      "outputs": [],
      "stateMutability": "nonpayable",
      "type": "function"
    },
    {
      "inputs": [],
      "name": "token",
      "outputs": [
        {
          "internalType": "contract PaytknToken",
          "name": "",
          "type": "address"
        }
      ],
      "stateMutability": "view",
      "type": "function"
    },
    {
      "inputs": [],
      "name": "totalMerchantStaked",
      "outputs": [
        {
          "internalType": "uint256",
          "name": "",
          "type": "uint256"
        }
      ],
      "stateMutability": "view",
      "type": "function"
    },
    {
      "inputs": [],
      "name": "totalMerchants",
      "outputs": [
        {
          "internalType": "uint256",
          "name": "",
          "type": "uint256"
        }
      ],
      "stateMutability": "view",
      "type": "function"
    },
    {
      "inputs": [],
      "name": "totalPaymentsViaNetwork",
      "outputs": [
        {
          "internalType": "uint256",
          "name": "",
          "type": "uint256"
        }
      ],
      "stateMutability": "view",
      "type": "function"
    },
    {
      "inputs": [],
      "name": "totalRewardsPaid",
      "outputs": [
        {
          "internalType": "uint256",
          "name": "",
          "type": "uint256"
        }
      ],
      "stateMutability": "view",
      "type": "function"
    },
    {
      "inputs": [
        {
          "internalType": "address",
          "name": "newOwner",
          "type": "address"
        }
      ],
      "name": "transferOwnership",
      "outputs": [],
      "stateMutability": "nonpayable",
      "type": "function"
    },
    {
      "inputs": [],
      "name": "unstake",
      "outputs": [],
      "stateMutability": "nonpayable",
      "type": "function"
    }
  ],
  "bytecode": "0x60a03461011557601f6113c138819003918201601f19168301916001600160401b0383118484101761011a57808492604094855283398101031261011557602061004882610130565b916001600160a01b0391829161005e9101610130565b169182156100fc57600080546001600160a01b03198116851782556040519491908416907f8be0079c531659141344cd1fd0a4f28419497f9722a3daafe3b4186f6b6457e09080a360017f9b779b17422d0df92223018b32b4d1fa46e071723d6817e2486d003becc55f0055166080524260065561127c9081610145823960805181818161015601528181610321015281816104670152610a3b0152f35b604051631e4fbdf760e01b815260006004820152602490fd5b600080fd5b634e487b7160e01b600052604160045260246000fd5b51906001600160a01b03821682036101155756fe608060408181526004918236101561001657600080fd5b600092833560e01c9182630e733ef114610cb2575081631b795d5614610c715781631e1fd38814610c555781632def66201461098757816344d4aeb01461094a5781634830883414610969578163487b55f41461094a5781635697397414610925578163715018a6146108c857816374958e35146108a95781638da5cb5b146108815781639231cf741461086257816392a42fa914610827578163939d6237146108085781639a79d32b146107eb578163bc22fe8c146107cc578163c11d2d1814610736578163c1a0db3014610711578163c52d47f0146103fb578163caaffae9146103d6578163da3a5f72146102d2578163e4497502146102b3578163f25f017c14610240578163f2fde38b146101b557508063f40f0f52146101895763fc0c546a1461014357600080fd5b34610185578160031936011261018557517f00000000000000000000000000000000000000000000000000000000000000006001600160a01b03168152602090f35b5080fd5b5034610185576020366003190112610185576020906101ae6101a9610d84565b610ff2565b9051908152f35b90503461023c57602036600319011261023c576101d0610d84565b906101d961121a565b6001600160a01b0391821692831561022657505082546001600160a01b0319811683178455167f8be0079c531659141344cd1fd0a4f28419497f9722a3daafe3b4186f6b6457e08380a380f35b51631e4fbdf760e01b8152908101849052602490fd5b8280fd5b9190503461023c57602036600319011261023c5760c09281906001600160a01b03610269610d84565b168152600160205220805492600182015492600283015490600560ff60038601541693850154940154948151968752602087015285015215156060840152608083015260a0820152f35b5050346101855781600319360112610185576020906003549051908152f35b90503461023c57602036600319011261023c578035906102f061121a565b82516323b872dd60e01b815233828201908152306020828101919091526040820185905290829081906060010381887f00000000000000000000000000000000000000000000000000000000000000006001600160a01b03165af19081156103cc579161038a7fa4f1ebd9af6d34eae3c069a9e1cde023f2c5aa892a1615b18027d1d5b9904a0a959260209594889161039f575b50610ebb565b610395838254610e40565b905551908152a180f35b6103bf9150863d88116103c5575b6103b78183610e1e565b810190610ea3565b38610384565b503d6103ad565b84513d87823e3d90fd5b50503461018557816003193601126101855760209051692a5a058fc295ed0000008152f35b90503461023c5760208060031936011261070d5781359161041a611107565b82156106db57610428611149565b338552600182528385209060038201805460ff811615610669575b505084516323b872dd60e01b815233828201908152306020820152604081018690527f00000000000000000000000000000000000000000000000000000000000000006001600160a01b0316919085908290819060600103818b865af1801561065f576104b691899161039f5750610ebb565b825480610550575b50505061051d83670de0b6b3a764000061050f6104fd7f331b591cc0983cd9d399b50dbfa864f253f25c72e8eb5e3dec66264028a81298978654610e40565b80865542600187015560055490610e63565b046002840155600354610e40565b6003555492519283523392a260017f9b779b17422d0df92223018b32b4d1fa46e071723d6817e2486d003becc55f005580f35b670de0b6b3a76400006105696105759260055490610e63565b04600285015490610e96565b9182151580610654575b156104be5791849183610597836105e5999654610e96565b81558086016105a7848254610e40565b90556105b583600854610e40565b600855885163a9059cbb60e01b81523391810191825260208201939093529196879283918b918391604090910190565b03925af190811561064a5761062661051d927f331b591cc0983cd9d399b50dbfa864f253f25c72e8eb5e3dec66264028a8129896899161062d575b50610ef9565b93386104be565b6106449150863d88116103c5576103b78183610e1e565b38610620565b85513d88823e3d90fd5b50828154101561057f565b87513d8a823e3d90fd5b60ff19166001179055600254680100000000000000008110156106c8578060016106969201600255610d9f565b81546001600160a01b0360039290921b91821b19163390911b1790556007546106be90610fe3565b6007553880610443565b634e487b7160e01b875260418252602487fd5b60649184519162461bcd60e51b8352820152600e60248201526d04d757374207374616b65203e20360941b6044820152fd5b8380fd5b5050346101855781600319360112610185576020905169021e19e0c9bab24000008152f35b5050346101855780600319360112610185577f8d40b1e890ced9adf397d25a06046df796e132dd75cbfb5a21c868c2b4a4a75e6020610773610d84565b61077b61121a565b6001600160a01b031680855260018252838520600381015491949160ff166107a9575b50516024358152a280f35b6005016107b68154610fe3565b90556107c3600954610fe3565b6009553861079e565b5050346101855781600319360112610185576020906009549051908152f35b5050346101855781600319360112610185576020906101ae610fb0565b5050346101855781600319360112610185576020906005549051908152f35b5050346101855760203660031901126101855760609061084d610848610d84565b610f35565b91929060ff8251941684526020840152820152f35b5050346101855781600319360112610185576020906006549051908152f35b505034610185578160031936011261018557905490516001600160a01b039091168152602090f35b5050346101855781600319360112610185576020906008549051908152f35b83346109225780600319360112610922576108e161121a565b80546001600160a01b03198116825581906001600160a01b03167f8be0079c531659141344cd1fd0a4f28419497f9722a3daafe3b4186f6b6457e08280a380f35b80fd5b50503461018557816003193601126101855760209051690a968163f0a57b4000008152f35b5050346101855781600319360112610185576020906007549051908152f35b90503461023c578260031936011261023c5760209250549051908152f35b9190503461023c578260031936011261023c576109a2611107565b3383526020906001825280842092835415610c2357600184015462093a808101809111610c10574210610bdb576109d7611149565b835492670de0b6b3a76400006109ef60055486610e63565b049186610a026002880194855490610e96565b93610a0f87600354610e96565b60035581885555835163a9059cbb60e01b80825233838301908152602081018890526001600160a01b037f000000000000000000000000000000000000000000000000000000000000000016988a9390918690829081900360400181878e5af1908115610bd15790610a87918591610bba5750610ebb565b85151580610baf575b610aed575b82887f7db4fe96b4ffcb7f683bf88d88ad04344128433f36334227da8492ad8c51143889898982519485528401523392a260017f9b779b17422d0df92223018b32b4d1fa46e071723d6817e2486d003becc55f005580f35b928592610b469992828796610b03878354610e96565b825501610b11868254610e40565b9055610b1f85600854610e40565b60085588519081523392810192835260208301949094529298899384929091839160400190565b03925af1948515610ba5577f7db4fe96b4ffcb7f683bf88d88ad04344128433f36334227da8492ad8c5114389495610b84918891610b8e5750610ef9565b8493863880610a95565b6106449150833d85116103c5576103b78183610e1e565b83513d88823e3d90fd5b508584541015610a90565b6103bf9150873d89116103c5576103b78183610e1e565b88513d86823e3d90fd5b82606492519162461bcd60e51b83528201526011602482015270372d646179206c6f636b2061637469766560781b6044820152fd5b634e487b7160e01b865260118252602486fd5b82606492519162461bcd60e51b8352820152600e60248201526d139bdd1a1a5b99c81cdd185ad95960921b6044820152fd5b5050346101855781600319360112610185576020905160c88152f35b90503461023c57602036600319011261023c5735916002548310156109225750610c9c602092610d9f565b905491519160018060a01b039160031b1c168152f35b9091503461070d57602036600319011261070d5783839160c09560a0610cd6610d84565b92610ce081610dec565b8281528260208201528286820152826060820152826080820152015260018060a01b03168152600160205220825191610d1883610dec565b81549384845260018301546020850190815260028401549082860191825260a0600560ff600388015416956060890196151587528701549660808901978852015496019586528251968752516020870152519085015251151560608401525160808301525160a0820152f35b600435906001600160a01b0382168203610d9a57565b600080fd5b600254811015610dd65760026000527f405787fa12a823e0f2b7631cc41b3ba8828b3321ca811111fa75cd3aa3bb5ace0190600090565b634e487b7160e01b600052603260045260246000fd5b60c0810190811067ffffffffffffffff821117610e0857604052565b634e487b7160e01b600052604160045260246000fd5b90601f8019910116810190811067ffffffffffffffff821117610e0857604052565b91908201809211610e4d57565b634e487b7160e01b600052601160045260246000fd5b81810292918115918404141715610e4d57565b8115610e80570490565b634e487b7160e01b600052601260045260246000fd5b91908203918211610e4d57565b90816020910312610d9a57518015158103610d9a5790565b15610ec257565b60405162461bcd60e51b815260206004820152600f60248201526e151c985b9cd9995c8819985a5b1959608a1b6044820152606490fd5b15610f0057565b60405162461bcd60e51b815260206004820152600d60248201526c14995dd85c990819985a5b1959609a1b6044820152606490fd5b6001600160a01b0316600090815260016020526040902054692a5a058fc295ed000000811015610fa457690a968163f0a57b400000811015610f985769021e19e0c9bab24000001115610f8d57600090600090600090565b6001906103e8908190565b506002906107d0908190565b50600390610bb8908190565b6003548015610fdd576004549061271091828102928184041490151715610e4d57610fda91610e76565b90565b50600090565b6000198114610e4d5760010190565b60018060a01b0316600052600160205260406000206040519061101482610dec565b80548083526001820154602084015260056002830154926040850193845260ff6003820154161515606086015260048101546080860152015460a0840152156111005760055460035480611084575b5061107b670de0b6b3a764000091610fda9451610e63565b04905190610e96565b9261109160065442610e96565b90620151806110a76004549361016d8504610e63565b04918083116110f8575b50670de0b6b3a764000091828102928184041490151715610e4d576110ef670de0b6b3a7640000936110e9610fda9761107b95610e76565b90610e40565b92509350611063565b9150386110b1565b5050600090565b7f9b779b17422d0df92223018b32b4d1fa46e071723d6817e2486d003becc55f0060028154146111375760029055565b604051633ee5aeb560e01b8152600490fd5b60035480156112135761115e60065442610e96565b801561120f576004549061016d908183049060c885029185830460c803610e4d57620151809361271061119e940404908181106000146112085750610e63565b0490808211611200575b81159283156111bc575b5050505042600655565b670de0b6b3a76400009384840294848604141715610e4d576111e46111ec916111f495610e76565b600554610e40565b600555610e96565b600455388080806111b2565b9050806111a8565b9050610e63565b5050565b5042600655565b6000546001600160a01b0316330361122e57565b60405163118cdaa760e01b8152336004820152602490fdfea26469706673582212203b327f496206b0b02ae9fce026e496ceaad90f76d6364b8743a8ac4b69601e2564736f6c63430008180033",
  "linkReferences": {},
  "deployedLinkReferences": {}
}