{
  "_format": "hh-sol-artifact-1",
  "contractName": "PaytknTreasury",
  "sourceName": "contracts/PaytknTreasury.sol",
  "abi": [
    {
      "inputs": [
        {
          "internalType": "address",
          "name": "_token",
          "type": "address"
        },
        {
          "internalType": "address",
          "name": "_staking",
          "type": "address"
        },
        {
          "internalType": "address",
          "name": "_merchantStaking",
          "type": "address"
        },
        {
          "internalType": "address",
          "name": "_rewardEngine",
          "type": "address"
        },
        {
          "internalType": "address",
          "name": "_teamWallet",
          "type": "address"
        },
        {
          "internalType": "address",
          "name": "admin",
          "type": "address"
        }
      ],
      "stateMutability": "nonpayable",
      "type": "constructor"
    },
    {
      "inputs": [],
      "name": "AccessControlBadConfirmation",
      "type": "error"
    },
    {
      "inputs": [
        {
          "internalType": "address",
          "name": "account",
          "type": "address"
        },
        {
          "internalType": "bytes32",
          "name": "neededRole",
          "type": "bytes32"
        }
      ],
      "name": "AccessControlUnauthorizedAccount",
      "type": "error"
    },
    {
      "inputs": [],
      "name": "ReentrancyGuardReentrantCall",
      "type": "error"
    },
    {
      "anonymous": false,
      "inputs": [
        {
          "indexed": false,
          "internalType": "uint256",
          "name": "amount",
          "type": "uint256"
        },
        {
          "indexed": false,
          "internalType": "uint256",
          "name": "timestamp",
          "type": "uint256"
        }
      ],
      "name": "AgentBurn",
      "type": "event"
    },
    {
      "anonymous": false,
      "inputs": [
        {
          "indexed": false,
          "internalType": "uint256",
          "name": "toTeam",
          "type": "uint256"
        },
        {
          "indexed": false,
          "internalType": "uint256",
          "name": "toRewardPool",
          "type": "uint256"
        },
        {
          "indexed": false,
          "internalType": "uint256",
          "name": "toMerchantPool",
          "type": "uint256"
        },
        {
          "indexed": false,
          "internalType": "uint256",
          "name": "toTreasury",
          "type": "uint256"
        }
      ],
      "name": "FeeDistributed",
      "type": "event"
    },
    {
      "anonymous": false,
      "inputs": [
        {
          "indexed": true,
          "internalType": "address",
          "name": "user",
          "type": "address"
        },
        {
          "indexed": true,
          "internalType": "address",
          "name": "merchant",
          "type": "address"
        },
        {
          "indexed": false,
          "internalType": "uint256",
          "name": "paymentAmount",
          "type": "uint256"
        },
        {
          "indexed": false,
          "internalType": "uint256",
          "name": "fee",
          "type": "uint256"
        },
        {
          "indexed": false,
          "internalType": "uint256",
          "name": "cashback",
          "type": "uint256"
        }
      ],
      "name": "PaymentProcessed",
      "type": "event"
    },
    {
      "anonymous": false,
      "inputs": [
        {
          "indexed": false,
          "internalType": "uint256",
          "name": "newPrice",
          "type": "uint256"
        },
        {
          "indexed": false,
          "internalType": "uint256",
          "name": "timestamp",
          "type": "uint256"
        }
      ],
      "name": "PriceUpdated",
      "type": "event"
    },
    {
      "anonymous": false,
      "inputs": [
        {
          "indexed": true,
          "internalType": "bytes32",
          "name": "role",
          "type": "bytes32"
        },
        {
          "indexed": true,
          "internalType": "bytes32",
          "name": "previousAdminRole",
          "type": "bytes32"
        },
        {
          "indexed": true,
          "internalType": "bytes32",
          "name": "newAdminRole",
          "type": "bytes32"
        }
      ],
      "name": "RoleAdminChanged",
      "type": "event"
    },
    {
      "anonymous": false,
      "inputs": [
        {
          "indexed": true,
          "internalType": "bytes32",
          "name": "role",
          "type": "bytes32"
        },
        {
          "indexed": true,
          "internalType": "address",
          "name": "account",
          "type": "address"
        },
        {
          "indexed": true,
          "internalType": "address",
          "name": "sender",
          "type": "address"
        }
      ],
      "name": "RoleGranted",
      "type": "event"
    },
    {
      "anonymous": false,
      "inputs": [
        {
          "indexed": true,
          "internalType": "bytes32",
          "name": "role",
          "type": "bytes32"
        },
        {
          "indexed": true,
          "internalType": "address",
          "name": "account",
          "type": "address"
        },
        {
          "indexed": true,
          "internalType": "address",
          "name": "sender",
          "type": "address"
        }
      ],
      "name": "RoleRevoked",
      "type": "event"
    },
    {
      "anonymous": false,
      "inputs": [
        {
          "indexed": true,
          "internalType": "address",
          "name": "to",
          "type": "address"
        },
        {
          "indexed": false,
          "internalType": "uint256",
          "name": "amount",
          "type": "uint256"
        }
      ],
      "name": "StableWithdrawn",
      "type": "event"
    },
    {
      "inputs": [],
      "name": "AGENT_ROLE",
      "outputs": [
        {
          "internalType": "bytes32",
          "name": "",
          "type": "bytes32"
        }
      ],
      "stateMutability": "view",
      "type": "function"
    },
    {
      "inputs": [],
      "name": "DEFAULT_ADMIN_ROLE",
      "outputs": [
        {
          "internalType": "bytes32",
          "name": "",
          "type": "bytes32"
        }
      ],
      "stateMutability": "view",
      "type": "function"
    },
    {
      "inputs": [],
      "name": "OPERATOR_ROLE",
      "outputs": [
        {
          "internalType": "bytes32",
          "name": "",
          "type": "bytes32"
        }
      ],
      "stateMutability": "view",
      "type": "function"
    },
    {
      "inputs": [],
      "name": "executeDailyBurn",
      "outputs": [],
      "stateMutability": "nonpayable",
      "type": "function"
    },
    {
      "inputs": [
        {
          "internalType": "uint256",
          "name": "amount",
          "type": "uint256"
        }
      ],
      "name": "executeMint",
      "outputs": [],
      "stateMutability": "nonpayable",
      "type": "function"
    },
    {
      "inputs": [],
      "name": "getProtocolState",
      "outputs": [
        {
          "internalType": "uint256",
          "name": "_stableReserve",
          "type": "uint256"
        },
        {
          "internalType": "uint256",
          "name": "_paytknBalance",
          "type": "uint256"
        },
        {
          "internalType": "uint256",
          "name": "_totalStaked",
          "type": "uint256"
        },
        {
          "internalType": "uint256",
          "name": "_rewardPool",
          "type": "uint256"
        },
        {
          "internalType": "uint256",
          "name": "_currentAPY",
          "type": "uint256"
        },
        {
          "internalType": "uint256",
          "name": "_totalSupply",
          "type": "uint256"
        },
        {
          "internalType": "uint256",
          "name": "_paytknPrice",
          "type": "uint256"
        },
        {
          "internalType": "uint256",
          "name": "_totalPayments",
          "type": "uint256"
        },
        {
          "internalType": "uint256",
          "name": "_totalFees",
          "type": "uint256"
        },
        {
          "internalType": "uint256",
          "name": "_merchantPool",
          "type": "uint256"
        }
      ],
      "stateMutability": "view",
      "type": "function"
    },
    {
      "inputs": [
        {
          "internalType": "bytes32",
          "name": "role",
          "type": "bytes32"
        }
      ],
      "name": "getRoleAdmin",
      "outputs": [
        {
          "internalType": "bytes32",
          "name": "",
          "type": "bytes32"
        }
      ],
      "stateMutability": "view",
      "type": "function"
    },
    {
      "inputs": [
        {
          "internalType": "bytes32",
          "name": "role",
          "type": "bytes32"
        },
        {
          "internalType": "address",
          "name": "account",
          "type": "address"
        }
      ],
      "name": "grantRole",
      "outputs": [],
      "stateMutability": "nonpayable",
      "type": "function"
    },
    {
      "inputs": [
        {
          "internalType": "bytes32",
          "name": "role",
          "type": "bytes32"
        },
        {
          "internalType": "address",
          "name": "account",
          "type": "address"
        }
      ],
      "name": "hasRole",
      "outputs": [
        {
          "internalType": "bool",
          "name": "",
          "type": "bool"
        }
      ],
      "stateMutability": "view",
      "type": "function"
    },
    {
      "inputs": [],
      "name": "lastPriceUpdate",
      "outputs": [
        {
          "internalType": "uint256",
          "name": "",
          "type": "uint256"
        }
      ],
      "stateMutability": "view",
      "type": "function"
    },
    {
      "inputs": [],
      "name": "merchantPool",
      "outputs": [
        {
          "internalType": "uint256",
          "name": "",
          "type": "uint256"
        }
      ],
      "stateMutability": "view",
      "type": "function"
    },
    {
      "inputs": [],
      "name": "merchantStaking",
      "outputs": [
        {
          "internalType": "contract MerchantStaking",
          "name": "",
          "type": "address"
        }
      ],
      "stateMutability": "view",
      "type": "function"
    },
    {
      "inputs": [],
      "name": "paytknPriceUsd",
      "outputs": [
        {
          "internalType": "uint256",
          "name": "",
          "type": "uint256"
        }
      ],
      "stateMutability": "view",
      "type": "function"
    },
    {
      "inputs": [
        {
          "internalType": "address",
          "name": "user",
          "type": "address"
        },
        {
          "internalType": "address",
          "name": "merchant",
          "type": "address"
        }
      ],
      "name": "processPayment",
      "outputs": [],
      "stateMutability": "payable",
      "type": "function"
    },
    {
      "inputs": [
        {
          "internalType": "bytes32",
          "name": "role",
          "type": "bytes32"
        },
        {
          "internalType": "address",
          "name": "callerConfirmation",
          "type": "address"
        }
      ],
      "name": "renounceRole",
      "outputs": [],
      "stateMutability": "nonpayable",
      "type": "function"
    },
    {
      "inputs": [
        {
          "internalType": "bytes32",
          "name": "role",
          "type": "bytes32"
        },
        {
          "internalType": "address",
          "name": "account",
          "type": "address"
        }
      ],
      "name": "revokeRole",
      "outputs": [],
      "stateMutability": "nonpayable",
      "type": "function"
    },
    {
      "inputs": [],
      "name": "rewardEngine",
      "outputs": [
        {
          "internalType": "contract RewardEngine",
          "name": "",
          "type": "address"
        }
      ],
      "stateMutability": "view",
      "type": "function"
    },
    {
      "inputs": [],
      "name": "stableReserve",
      "outputs": [
        {
          "internalType": "uint256",
          "name": "",
          "type": "uint256"
        }
      ],
      "stateMutability": "view",
      "type": "function"
    },
    {
      "inputs": [],
      "name": "staking",
      "outputs": [
        {
          "internalType": "contract PaytknStaking",
          "name": "",
          "type": "address"
        }
      ],
      "stateMutability": "view",
      "type": "function"
    },
    {
      "inputs": [
        {
          "internalType": "bytes4",
          "name": "interfaceId",
          "type": "bytes4"
        }
      ],
      "name": "supportsInterface",
      "outputs": [
        {
          "internalType": "bool",
          "name": "",
          "type": "bool"
        }
      ],
      "stateMutability": "view",
      "type": "function"
    },
    {
      "inputs": [],
      "name": "teamWallet",
      "outputs": [
        {
          "internalType": "address",
          "name": "",
          "type": "address"
        }
      ],
      "stateMutability": "view",
      "type": "function"
    },
    {
      "inputs": [],
      "name": "token",
      "outputs": [
        {
          "internalType": "contract PaytknToken",
          "name": "",
          "type": "address"
        }
      ],
      "stateMutability": "view",
      "type": "function"
    },
    {
      "inputs": [],
      "name": "totalBurnedByAgent",
      "outputs": [
        {
          "internalType": "uint256",
          "name": "",
          "type": "uint256"
        }
      ],
      "stateMutability": "view",
      "type": "function"
    },
    {
      "inputs": [],
      "name": "totalCashbackMinted",
      "outputs": [
        {
          "internalType": "uint256",
          "name": "",
          "type": "uint256"
        }
      ],
      "stateMutability": "view",
      "type": "function"
    },
    {
      "inputs": [],
      "name": "totalFeesCollected",
      "outputs": [
        {
          "internalType": "uint256",
          "name": "",
          "type": "uint256"
        }
      ],
      "stateMutability": "view",
      "type": "function"
    },
    {
      "inputs": [],
      "name": "totalPaymentsProcessed",
      "outputs": [
        {
          "internalType": "uint256",
          "name": "",
          "type": "uint256"
        }
      ],
      "stateMutability": "view",
      "type": "function"
    },
    {
      "inputs": [
        {
          "internalType": "uint256",
          "name": "newPrice",
          "type": "uint256"
        }
      ],
      "name": "updatePrice",
      "outputs": [],
      "stateMutability": "nonpayable",
      "type": "function"
    },
    {
      "inputs": [
        {
          "internalType": "address",
          "name": "to",
          "type": "address"
        },
        {
          "internalType": "uint256",
          "name": "amount",
          "type": "uint256"
        }
      ],
      "name": "withdrawStable",
      "outputs": [],
      "stateMutability": "nonpayable",
      "type": "function"
    },
    {
      "stateMutability": "payable",
      "type": "receive"
    }
  ],
  "bytecode": "0x610100346200018157601f62001cc038819003918201601f19168301916001600160401b03831184841017620001865780849260c0946040528339810103126200018157806200005362000113926200019c565b9062000062602082016200019c565b9062000071604082016200019c565b9162000080606083016200019c565b6200009c60a062000094608086016200019c565b94016200019c565b60017f9b779b17422d0df92223018b32b4d1fa46e071723d6817e2486d003becc55f008190556001600160a01b0396871660805292861660a05293851660c052841660e05280546001600160a01b03191691909316179091556200010081620001b1565b506200010c8162000231565b50620002d3565b506305f5e10060085560405161192f90816200037182396080518181816101880152818161024001528181610511015281816106f20152610a1a015260a0518181816102e40152818161072d01528181610da70152611401015260c05181611337015260e051816110670152f35b600080fd5b634e487b7160e01b600052604160045260246000fd5b51906001600160a01b03821682036200018157565b6001600160a01b031660008181527fad3228b676f7d3cd4284a5443f17f1962b36e491b30a40b2405849e597ba5fb5602052604081205490919060ff166200022d57818052816020526040822081835260205260408220600160ff19825416179055339160008051602062001ca08339815191528180a4600190565b5090565b6001600160a01b031660008181527fe298cb3514b0702cec56ac2053c1ecb2187cfdc8a325f22a672bc5027eadc9e260205260408120549091907fcab5a0bfe0b79d2c4b1c2e02599fa044d115b7511f9659307cb42769509677099060ff16620002ce57808352826020526040832082845260205260408320600160ff1982541617905560008051602062001ca0833981519152339380a4600190565b505090565b6001600160a01b031660008181527fee57cd81e84075558e8fcc182a1f4393f91fc97f963a136e66b7f949a62f319f60205260408120549091907f97667070c54ef182b0f5858b034beac1b6f3089aa2d3188bb1e8929f4fa9b9299060ff16620002ce57808352826020526040832082845260205260408320600160ff1982541617905560008051602062001ca0833981519152339380a460019056fe6080604081815260049182361015610031575b505050361561002057600080fd5b61002c346002546116a3565b600255005b600092833560e01c91826301ffc9a714611542575081631a81e7f21461152357816322459e18146114e8578163248a9ca3146114be5781632f2ff15d1461149457816336568abe1461144e57816337e32d1d146114305781634cf088d9146113ec57816359927044146113c35781635c0b8e44146113a457816360c6d8ae146113855781636949faeb146113665781636972f1831461132257816376699dfa146113035781638d364532146111ac5781638d6cc56d1461111657816391d14854146110d05781639a5c6eb6146110b1578163a217fddf14611096578163ab5829d714611052578163ce7a2b0214610985578163d547741f14610946578163d770adc7146106bc578163da57556a1461069d578163de9eb5a0146104dd578163e7a486fb146101f557508063f5b541a6146101bb5763fc0c546a146101755780610012565b346101b757816003193601126101b757517f00000000000000000000000000000000000000000000000000000000000000006001600160a01b03168152602090f35b5080fd5b50346101b757816003193601126101b757602090517f97667070c54ef182b0f5858b034beac1b6f3089aa2d3188bb1e8929f4fa9b9298152f35b8383346101b757602090816003193601126104d957833593610215611742565b69152d02c7e14af68000008511610498578151636c24df9560e01b8152939485946001600160a01b037f000000000000000000000000000000000000000000000000000000000000000081169591828186818a5afa9081156103f657889161045e575b506127106102896102919286611670565b0480946115c1565b9280610400575b50826102a2578680f35b853b156103f25784516340c10f1960e01b815230858201908152602081018590528890829081906040010381838b5af180156103f6579088916103de575b50507f00000000000000000000000000000000000000000000000000000000000000001694818551809263095ea7b360e01b8252818a81610339898d8c840160209093929193604081019460018060a01b031681520152565b03925af180156103d4576103a6575b5050833b156103a2576024859283855196879485936393707a1960e01b85528401525af19081156103995750610382575b80808080808680f35b61038b906115e4565b610396578082610379565b80fd5b513d84823e3d90fd5b8480fd5b816103c592903d106103cd575b6103bd818361160e565b8101906116b0565b508680610348565b503d6103b3565b85513d89823e3d90fd5b6103e7906115e4565b6103f25786896102e0565b8680fd5b86513d8a823e3d90fd5b863b1561045a5785516340c10f1960e01b8152308682019081526020810192909252908890829081906040010381838b5af180156103f657908891610446575b50610298565b61044f906115e4565b6103f2578689610440565b8780fd5b809850838092503d8311610491575b610477818361160e565b8101031261048c579551879690612710610278565b600080fd5b503d61046d565b82606492519162461bcd60e51b8352820152601c60248201527f4d696e7420746f6f206c6172676520666f722073696e676c65207478000000006044820152fd5b8280fd5b919050346104d957826003193601126104d9576104f8611742565b80516370a0823160e01b815230818401526020929084907f00000000000000000000000000000000000000000000000000000000000000006001600160a01b0316908581602481855afa908115610693578391610662575b5084516331dbe71360e21b81529086828681865afa918215610658578492610624575b506127109161058191611670565b04928361058c578280f35b813b156104d95783602484928388519586948593630852cd8d60e31b85528401525af1801561061a57610602575b50507ff782da622ce0f78822ca203026630280d1c17a83efeebfe5151f6fb99d5c913b926105ea826007546116a3565b60075582519182524290820152a13880808381808280f35b61060b906115e4565b6106165783386105ba565b8380fd5b84513d84823e3d90fd5b935090508583813d8111610651575b61063d818361160e565b8101031261048c5791518692610581610573565b503d610633565b86513d86823e3d90fd5b809350868092503d831161068c575b61067b818361160e565b8101031261048c5785915138610550565b503d610671565b85513d85823e3d90fd5b5050346101b757816003193601126101b7576020906008549051908152f35b8383346101b757816003193601126101b75760025481516370a0823160e01b815230858201529092602092906001600160a01b037f00000000000000000000000000000000000000000000000000000000000000008116908585602481855afa94851561093c57839561090d575b507f000000000000000000000000000000000000000000000000000000000000000016908351906340bd8e6960e11b825286828a81865afa9182156109035784926108d4575b5084516366666aa960e01b81529287848b81845afa938415610898578a94939291899187956108a2575b508751639a79d32b60e01b815295869182905afa93841561089857859493929189918c9795610866575b5087516318160ddd60e01b81529b8c9182905afa93841561085b579361082a575b6101409950600854945495600554976003549982519b8c528b01528901526060880152608087015260a086015260c085015260e0840152610100830152610120820152f35b92508689813d8311610854575b610841818361160e565b8101031261048c576101409851926107e5565b503d610837565b8651903d90823e3d90fd5b9650935085813d8311610891575b61087e818361160e565b8101031261048c57878a9551938c6107c4565b503d610874565b86513d87823e3d90fd5b9550935084813d83116108cd575b6108ba818361160e565b8101031261048c57878a9451938c61079a565b503d6108b0565b9091508681813d83116108fc575b6108ec818361160e565b8101031261048c57519089610770565b503d6108e2565b85513d86823e3d90fd5b9094508581813d8311610935575b610925818361160e565b8101031261048c5751938861072a565b503d61091b565b84513d85823e3d90fd5b919050346104d957806003193601126104d957610981913561097c600161096b611595565b93838752866020528620015461179e565b611842565b5080f35b918091506003193601126104d95761099b6115ab565b916109a4611595565b6109ac6118b7565b6109b46116c8565b3415611022576032340234810460320361100f57612710900491858080806109dc87346115c1565b865af16109e7611630565b5015610fcc576103e8808402908482041484151715610fb9578451632033c37d60e21b81526020956001600160a01b03957f000000000000000000000000000000000000000000000000000000000000000087169491939092612710909104908a90898185818a5afa908115610faf578291610f82575b508551630248ac6960e01b8152908a8286818b5afa918215610f78578492849288928d9692610f3d575b50928085610ac385610abe849796610abe61271080610aab610ab59d8a9c611670565b049b8c9386611670565b049b8c946115c1565b6115c1565b97600154165af1610ad2611630565b5015610f0457610ae4836002546116a3565b60025580158015610d57575b5081158015610ce4575b5086519384528a8401528286015260608201527f5b3735d487e9342fbcf11df79c2146f60ffabadb4d2e31ced107fe4346cd21ef90608090a1825160016257a05560e11b0319815287818381885afa908115610cda578a91610cab575b50610b656127109134611670565b046305f5e10090818102918183041490151715610c1557610b8a8a9160085490611683565b9485610c28575b505080546000198114610c1557926060959287959260017f72dd19d9bd6e3cdbe36ecaefc0cdd05baf431df4fbb3957e3781184ce70e394b9996019055610bda816005546116a3565b600555815198348a5289015287015216941692a360017f9b779b17422d0df92223018b32b4d1fa46e071723d6817e2486d003becc55f005580f35b634e487b7160e01b8a526011825260248afd5b803b156101b75784516330d6ded960e21b81526001600160a01b038b16848201908152602081018890529091839183919082908490829060400103925af18015610ca157610c89575b5050610c7f846006546116a3565b6006558838610b91565b610c92906115e4565b610c9d578838610c71565b8880fd5b85513d84823e3d90fd5b90508781813d8311610cd3575b610cc2818361160e565b8101031261048c5751610b65610b57565b503d610cb8565b84513d8c823e3d90fd5b6305f5e1009081840291848304141715610d44579160809391610d37610d2f7f5b3735d487e9342fbcf11df79c2146f60ffabadb4d2e31ced107fe4346cd21ef979560085490611683565b6003546116a3565b6003559193509193610afa565b634e487b7160e01b8e526011865260248efd5b6305f5e1009081830291838304141715610d44578a868f928e610d7e8c9260085490611683565b938d85151580610e83575b610d99575b505050505050610af0565b925163095ea7b360e01b81527f0000000000000000000000000000000000000000000000000000000000000000919091166001600160a01b03811694820194855260208501869052939092839182908890829060400103925af18015610e7957908f91610e5b575b5050803b156104d957602483928b5194859384926393707a1960e01b84528c8401525af18015610e4f57610e3c575b8d9086898e8e8d610d8e565b610e48909d919d6115e4565b9b38610e30565b8e8951903d90823e3d90fd5b81610e7192903d106103cd576103bd818361160e565b508d38610e01565b8b513d86823e3d90fd5b5092516370a0823160e01b8152308c8201529350909183915060249082905afa908115610efa578e8e8d858c958f958991610ec1575b501015610d89565b965050505050905081813d8311610ef3575b610edd818361160e565b810103126104d957898e8e8d858c955138610eb9565b503d610ed3565b8a513d85823e3d90fd5b865162461bcd60e51b81528086018c905260136024820152721519585b481c185e5b595b9d0819985a5b1959606a1b6044820152606490fd5b945092945050508a82813d8311610f71575b610f59818361160e565b810103126104d9579051899284929091879183610a88565b503d610f4f565b87513d85823e3d90fd5b90508981813d8311610fa8575b610f99818361160e565b810103126101b7575138610a5e565b503d610f8f565b86513d84823e3d90fd5b634e487b7160e01b875260118252602487fd5b606490602085519162461bcd60e51b8352820152601760248201527f4d65726368616e74207061796d656e74206661696c65640000000000000000006044820152fd5b634e487b7160e01b865260118352602486fd5b506020606492519162461bcd60e51b8352820152600a602482015269139bc81c185e5b595b9d60b21b6044820152fd5b5050346101b757816003193601126101b757517f00000000000000000000000000000000000000000000000000000000000000006001600160a01b03168152602090f35b5050346101b757816003193601126101b75751908152602090f35b5050346101b757816003193601126101b7576020906002549051908152f35b9050346104d957816003193601126104d9578160209360ff926110f1611595565b903582528186528282206001600160a01b039091168252855220549151911615158152f35b9050346104d95760203660031901126104d9578035906111346116c8565b8115611175575090817f945c1c4e99aa89f648fbfe3df471b916f719e16d960fcec0737d4d56bd69683892600855426009558151908152426020820152a180f35b606490602084519162461bcd60e51b8352820152601160248201527005072696365206d757374206265203e203607c1b6044820152fd5b919050346104d957806003193601126104d9576111c76115ab565b90602435928480528460205281852033865260205260ff8286205416156112e7576111f06118b7565b6002548085116112ad5784611204916115c1565b6002558480808087875af1611217611630565b50156112795750519182526001600160a01b0316907fc0c38a768e4dc449a238498e0e4efe579f69439b116d0318f3c81f15da6e713c90602090a260017f9b779b17422d0df92223018b32b4d1fa46e071723d6817e2486d003becc55f005580f35b6020606492519162461bcd60e51b8352820152600f60248201526e15da5d1a191c985dc819985a5b1959608a1b6044820152fd5b506020606492519162461bcd60e51b83528201526014602482015273496e73756666696369656e74207265736572766560601b6044820152fd5b84604492519163e2517d3f60e01b835233908301526024820152fd5b5050346101b757816003193601126101b7576020906003549051908152f35b5050346101b757816003193601126101b757517f00000000000000000000000000000000000000000000000000000000000000006001600160a01b03168152602090f35b5050346101b757816003193601126101b7576020906009549051908152f35b5050346101b757816003193601126101b7576020906005549051908152f35b5050346101b757816003193601126101b7576020906006549051908152f35b5050346101b757816003193601126101b75760015490516001600160a01b039091168152602090f35b5050346101b757816003193601126101b757517f00000000000000000000000000000000000000000000000000000000000000006001600160a01b03168152602090f35b9050346104d957826003193601126104d95760209250549051908152f35b8383346101b757806003193601126101b757611468611595565b90336001600160a01b038316036114855750610981919235611842565b5163334bd91960e11b81528390fd5b919050346104d957806003193601126104d95761098191356114b9600161096b611595565b6117c4565b9050346104d95760203660031901126104d957816020936001923581528085522001549051908152f35b5050346101b757816003193601126101b757602090517fcab5a0bfe0b79d2c4b1c2e02599fa044d115b7511f9659307cb42769509677098152f35b5050346101b757816003193601126101b7576020906007549051908152f35b8491346104d95760203660031901126104d9573563ffffffff60e01b81168091036104d95760209250637965db0b60e01b8114908115611584575b5015158152f35b6301ffc9a760e01b1490508361157d565b602435906001600160a01b038216820361048c57565b600435906001600160a01b038216820361048c57565b919082039182116115ce57565b634e487b7160e01b600052601160045260246000fd5b67ffffffffffffffff81116115f857604052565b634e487b7160e01b600052604160045260246000fd5b90601f8019910116810190811067ffffffffffffffff8211176115f857604052565b3d1561166b573d9067ffffffffffffffff82116115f8576040519161165f601f8201601f19166020018461160e565b82523d6000602084013e565b606090565b818102929181159184041417156115ce57565b811561168d570490565b634e487b7160e01b600052601260045260246000fd5b919082018092116115ce57565b9081602091031261048c5751801515810361048c5790565b3360009081527fee57cd81e84075558e8fcc182a1f4393f91fc97f963a136e66b7f949a62f319f60205260409020547f97667070c54ef182b0f5858b034beac1b6f3089aa2d3188bb1e8929f4fa9b9299060ff16156117245750565b6044906040519063e2517d3f60e01b82523360048301526024820152fd5b3360009081527fe298cb3514b0702cec56ac2053c1ecb2187cfdc8a325f22a672bc5027eadc9e260205260409020547fcab5a0bfe0b79d2c4b1c2e02599fa044d115b7511f9659307cb42769509677099060ff16156117245750565b80600052600060205260406000203360005260205260ff60406000205416156117245750565b9060009180835282602052604083209160018060a01b03169182845260205260ff6040842054161560001461183d57808352826020526040832082845260205260408320600160ff198254161790557f2f8788117e7eff1d82e926ec794901d17c78024a50270940304540a733656f0d339380a4600190565b505090565b9060009180835282602052604083209160018060a01b03169182845260205260ff60408420541660001461183d5780835282602052604083208284526020526040832060ff1981541690557ff6391f5c32d9c69d2a47ea670b442974b53935d1edc7fd64eb21e047a839171b339380a4600190565b7f9b779b17422d0df92223018b32b4d1fa46e071723d6817e2486d003becc55f0060028154146118e75760029055565b604051633ee5aeb560e01b8152600490fdfea2646970667358221220312c552b3e0e8f059c104a65a9fd8998150c2f837d4e40dcab8d9533a68b5f1a64736f6c634300081800332f8788117e7eff1d82e926ec794901d17c78024a50270940304540a733656f0d",
  "linkReferences": {},
  "deployedLinkReferences": {}
}