{
  "_format": "hh-sol-artifact-1",
  "contractName": "PaytknStaking",
  "sourceName": "contracts/PaytknStaking.sol",
  "abi": [
    {
      "inputs": [
        {
          "internalType": "address",
          "name": "_token",
          "type": "address"
        },
        {
          "internalType": "address",
          "name": "admin",
          "type": "address"
        }
      ],
      "stateMutability": "nonpayable",
      "type": "constructor"
    },
    {
      "inputs": [
        {
          "internalType": "address",
          "name": "owner",
          "type": "address"
        }
      ],
      "name": "OwnableInvalidOwner",
      "type": "error"
    },
    {
      "inputs": [
        {
          "internalType": "address",
          "name": "account",
          "type": "address"
        }
      ],
      "name": "OwnableUnauthorizedAccount",
      "type": "error"
    },
    {
      "inputs": [],
      "name": "ReentrancyGuardReentrantCall",
      "type": "error"
    },
    {
      "anonymous": false,
      "inputs": [
        {
          "indexed": true,
          "internalType": "address",
          "name": "previousOwner",
          "type": "address"
        },
        {
          "indexed": true,
          "internalType": "address",
          "name": "newOwner",
          "type": "address"
        }
      ],
      "name": "OwnershipTransferred",
      "type": "event"
    },
    {
      "anonymous": false,
      "inputs": [
        {
          "indexed": true,
          "internalType": "address",
          "name": "user",
          "type": "address"
        },
        {
          "indexed": false,
          "internalType": "uint256",
          "name": "amount",
          "type": "uint256"
        }
      ],
      "name": "RewardClaimed",
      "type": "event"
    },
    {
      "anonymous": false,
      "inputs": [
        {
          "indexed": false,
          "internalType": "uint256",
          "name": "amount",
          "type": "uint256"
        }
      ],
      "name": "RewardFunded",
      "type": "event"
    },
    {
      "anonymous": false,
      "inputs": [
        {
          "indexed": true,
          "internalType": "address",
          "name": "user",
          "type": "address"
        },
        {
          "indexed": false,
          "internalType": "uint256",
          "name": "amount",
          "type": "uint256"
        },
        {
          "indexed": false,
          "internalType": "uint256",
          "name": "lockupDays",
          "type": "uint256"
        },
        {
          "indexed": false,
          "internalType": "uint256",
          "name": "stakeIndex",
          "type": "uint256"
        }
      ],
      "name": "Staked",
      "type": "event"
    },
    {
      "anonymous": false,
      "inputs": [
        {
          "indexed": true,
          "internalType": "address",
          "name": "user",
          "type": "address"
        },
        {
          "indexed": false,
          "internalType": "uint256",
          "name": "amount",
          "type": "uint256"
        },
        {
          "indexed": false,
          "internalType": "uint256",
          "name": "reward",
          "type": "uint256"
        },
        {
          "indexed": false,
          "internalType": "uint256",
          "name": "stakeIndex",
          "type": "uint256"
        }
      ],
      "name": "Unstaked",
      "type": "event"
    },
    {
      "inputs": [],
      "name": "accRewardPerShare",
      "outputs": [
        {
          "internalType": "uint256",
          "name": "",
          "type": "uint256"
        }
      ],
      "stateMutability": "view",
      "type": "function"
    },
    {
      "inputs": [
        {
          "internalType": "uint256",
          "name": "stakeIndex",
          "type": "uint256"
        }
      ],
      "name": "claimRewards",
      "outputs": [],
      "stateMutability": "nonpayable",
      "type": "function"
    },
    {
      "inputs": [],
      "name": "currentAPY",
      "outputs": [
        {
          "internalType": "uint256",
          "name": "",
          "type": "uint256"
        }
      ],
      "stateMutability": "view",
      "type": "function"
    },
    {
      "inputs": [
        {
          "internalType": "uint256",
          "name": "amount",
          "type": "uint256"
        }
      ],
      "name": "fundRewards",
      "outputs": [],
      "stateMutability": "nonpayable",
      "type": "function"
    },
    {
      "inputs": [
        {
          "internalType": "address",
          "name": "user",
          "type": "address"
        }
      ],
      "name": "getStakes",
      "outputs": [
        {
          "components": [
            {
              "internalType": "uint256",
              "name": "amount",
              "type": "uint256"
            },
            {
              "internalType": "uint256",
              "name": "since",
              "type": "uint256"
            },
            {
              "internalType": "uint256",
              "name": "lockupEnd",
              "type": "uint256"
            },
            {
              "internalType": "uint256",
              "name": "multiplier",
              "type": "uint256"
            },
            {
              "internalType": "uint256",
              "name": "rewardDebt",
              "type": "uint256"
            }
          ],
          "internalType": "struct PaytknStaking.Stake[]",
          "name": "",
          "type": "tuple[]"
        }
      ],
      "stateMutability": "view",
      "type": "function"
    },
    {
      "inputs": [
        {
          "internalType": "address",
          "name": "",
          "type": "address"
        }
      ],
      "name": "hasStaked",
      "outputs": [
        {
          "internalType": "bool",
          "name": "",
          "type": "bool"
        }
      ],
      "stateMutability": "view",
      "type": "function"
    },
    {
      "inputs": [],
      "name": "lastRewardTime",
      "outputs": [
        {
          "internalType": "uint256",
          "name": "",
          "type": "uint256"
        }
      ],
      "stateMutability": "view",
      "type": "function"
    },
    {
      "inputs": [
        {
          "internalType": "uint256",
          "name": "",
          "type": "uint256"
        }
      ],
      "name": "lockupDurations",
      "outputs": [
        {
          "internalType": "uint256",
          "name": "",
          "type": "uint256"
        }
      ],
      "stateMutability": "view",
      "type": "function"
    },
    {
      "inputs": [
        {
          "internalType": "uint256",
          "name": "",
          "type": "uint256"
        }
      ],
      "name": "lockupMultipliers",
      "outputs": [
        {
          "internalType": "uint256",
          "name": "",
          "type": "uint256"
        }
      ],
      "stateMutability": "view",
      "type": "function"
    },
    {
      "inputs": [],
      "name": "owner",
      "outputs": [
        {
          "internalType": "address",
          "name": "",
          "type": "address"
        }
      ],
      "stateMutability": "view",
      "type": "function"
    },
    {
      "inputs": [
        {
          "internalType": "address",
          "name": "user",
          "type": "address"
        },
        {
          "internalType": "uint256",
          "name": "stakeIndex",
          "type": "uint256"
        }
      ],
      "name": "pendingRewards",
      "outputs": [
        {
          "internalType": "uint256",
          "name": "",
          "type": "uint256"
        }
      ],
      "stateMutability": "view",
      "type": "function"
    },
    {
      "inputs": [],
      "name": "renounceOwnership",
      "outputs": [],
      "stateMutability": "nonpayable",
      "type": "function"
    },
    {
      "inputs": [],
      "name": "rewardPool",
      "outputs": [
        {
          "internalType": "uint256",
          "name": "",
          "type": "uint256"
        }
      ],
      "stateMutability": "view",
      "type": "function"
    },
    {
      "inputs": [
        {
          "internalType": "uint256",
          "name": "amount",
          "type": "uint256"
        },
        {
          "internalType": "uint256",
          "name": "tierIndex",
          "type": "uint256"
        }
      ],
      "name": "stake",
      "outputs": [],
      "stateMutability": "nonpayable",
      "type": "function"
    },
    {
      "inputs": [
        {
          "internalType": "address",
          "name": "user",
          "type": "address"
        }
      ],
      "name": "stakeCount",
      "outputs": [
        {
          "internalType": "uint256",
          "name": "",
          "type": "uint256"
        }
      ],
      "stateMutability": "view",
      "type": "function"
    },
    {
      "inputs": [
        {
          "internalType": "address",
          "name": "",
          "type": "address"
        },
        {
          "internalType": "uint256",
          "name": "",
          "type": "uint256"
        }
      ],
      "name": "stakes",
      "outputs": [
        {
          "internalType": "uint256",
          "name": "amount",
          "type": "uint256"
        },
        {
          "internalType": "uint256",
          "name": "since",
          "type": "uint256"
        },
        {
          "internalType": "uint256",
          "name": "lockupEnd",
          "type": "uint256"
        },
        {
          "internalType": "uint256",
          "name": "multiplier",
          "type": "uint256"
        },
        {
          "internalType": "uint256",
          "name": "rewardDebt",
          "type": "uint256"
        }
      ],
      "stateMutability": "view",
      "type": "function"
    },
    {
      "inputs": [],
      "name": "token",
      "outputs": [
        {
          "internalType": "contract PaytknToken",
          "name": "",
          "type": "address"
        }
      ],
      "stateMutability": "view",
      "type": "function"
    },
    {
      "inputs": [],
      "name": "totalRewardsClaimed",
      "outputs": [
        {
          "internalType": "uint256",
          "name": "",
          "type": "uint256"
        }
      ],
      "stateMutability": "view",
      "type": "function"
    },
    {
      "inputs": [],
      "name": "totalStaked",
      "outputs": [
        {
          "internalType": "uint256",
          "name": "",
          "type": "uint256"
        }
      ],
      "stateMutability": "view",
      "type": "function"
    },
    {
      "inputs": [
        {
          "internalType": "address",
          "name": "newOwner",
          "type": "address"
        }
      ],
      "name": "transferOwnership",
      "outputs": [],
      "stateMutability": "nonpayable",
      "type": "function"
    },
    {
      "inputs": [],
      "name": "uniqueStakers",
      "outputs": [
        {
          "internalType": "uint256",
          "name": "",
          "type": "uint256"
        }
      ],
      "stateMutability": "view",
      "type": "function"
    },
    {
      "inputs": [
        {
          "internalType": "uint256",
          "name": "stakeIndex",
          "type": "uint256"
        }
      ],
      "name": "unstake",
      "outputs": [],
      "stateMutability": "nonpayable",
      "type": "function"
    }
  ],
  "bytecode": "0x60a03462000245576200168090601f38839003908101601f19168201906001600160401b038211838310176200024a578083916040958694855283398101031262000245576200004f8162000280565b6001600160a01b039160209083906200006a90830162000280565b1680156200022d57600080546001600160a01b031981168317825590919085167f8be0079c531659141344cd1fd0a4f28419497f9722a3daafe3b4186f6b6457e08380a3600191827f9b779b17422d0df92223018b32b4d1fa46e071723d6817e2486d003becc55f0055620000de62000260565b9180835262278d00828401526276a7008784015262ed4e00606084015283549260049384865580851062000203575b508482528282209085835b868110620001eb57505050506200012e62000260565b6127108152612ee083820152613a9888820152614e20606082015260025484600255808510620001c0575b509160028252808220915b848110620001aa578888881660805242600755516113ea90816200029682396080518181816101280152818161031a015281816105d401528181610ab10152610e1c0152f35b835161ffff168382015592810192850162000164565b60028352858585852092830192015b828110620001df57505062000159565b848155018690620001cf565b8562ffffff8451169301928185015501869062000118565b858352858585852092830192015b828110620002215750506200010d565b84815501869062000211565b8451631e4fbdf760e01b815260006004820152602490fd5b600080fd5b634e487b7160e01b600052604160045260246000fd5b60405190608082016001600160401b038111838210176200024a57604052565b51906001600160a01b0382168203620002455756fe6040608081526004908136101561001557600080fd5b600091823560e01c9081630962ef7914610d165781632e17de78146109ee57816333060d90146109b6578163584b62a11461093b5781636099ecb21461091257816366666aa9146108f3578163715018a61461089957816375e3c90c1461086e5781637b0472f0146105605781637ba6f458146104575781637c356df814610438578163817b1cd21461041a5781638da5cb5b146103f25781639231cf74146103d357816393707a19146102c2578163939d6237146102a35781639a79d32b1461027f578163a34b0f7614610260578163c93c8f3414610222578163d39491f6146101e6578163f2fde38b1461015b575063fc0c546a1461011557600080fd5b34610157578160031936011261015757517f00000000000000000000000000000000000000000000000000000000000000006001600160a01b03168152602090f35b5080fd5b9050346101e25760203660031901126101e257610176610eff565b9061017f611368565b6001600160a01b039182169283156101cc57505082546001600160a01b0319811683178455167f8be0079c531659141344cd1fd0a4f28419497f9722a3daafe3b4186f6b6457e08380a380f35b51631e4fbdf760e01b8152908101849052602490fd5b8280fd5b9050346101e25760203660031901126101e257359160025483101561021f5750610211602092610f83565b91905490519160031b1c8152f35b80fd5b5050346101575760203660031901126101575760209160ff9082906001600160a01b0361024d610eff565b168152600a855220541690519015158152f35b5050346101575781600319360112610157576020906008549051908152f35b50503461015757816003193601126101575760209061029c611263565b9051908152f35b5050346101575781600319360112610157576020906006549051908152f35b9050346101e25760203660031901126101e2576103156020823580936102e6611368565b85516323b872dd60e01b8152339181019182523060208301526040820192909252909283918291606090910190565b0381877f00000000000000000000000000000000000000000000000000000000000000006001600160a01b03165af19081156103c65792610382602093927f76c9bc8833024bf1e2c4a1a44523e5ea3530d2c673af92a0fb9522c03acbfe8b958791610399575b506110b8565b61038e826005546110f6565b60055551908152a180f35b6103b99150853d87116103bf575b6103b1818361107e565b8101906110a0565b3861037c565b503d6103a7565b50505051903d90823e3d90fd5b5050346101575781600319360112610157576020906007549051908152f35b505034610157578160031936011261015757905490516001600160a01b039091168152602090f35b9050346101e257826003193601126101e25760209250549051908152f35b5050346101575781600319360112610157576020906009549051908152f35b8391503461015757602090816003193601126101e2576001600160a01b0361047d610eff565b168352600382528383209182549167ffffffffffffffff831161054d5750845190939160056104b082821b87018461107e565b8183528583018095855286852085915b848310610529575050505050845193808501918186525180925285850193925b8281106104ed5785850386f35b83518051865280830151868401528781015188870152606080820151908701526080908101519086015260a090940193928101926001016104e0565b838960019261053b859c999a9c611103565b815201920192019190979594976104c0565b634e487b7160e01b855260419052602484fd5b9050346101e257816003193601126101e257803590602492833590610583611293565b83156108385760019485548310156108075761059d6112c3565b81516323b872dd60e01b815233858201908152306020828101919091526040820188905294899290918690829081906060010381867f00000000000000000000000000000000000000000000000000000000000000006001600160a01b03165af19081156107fd57906106169184916107e657506110b8565b8661062082610f4c565b93905493670de0b6b3a76400006106716127106106678b8b61064960039b8c98891b1c426110f6565b976106538b610f83565b905490891b1c978893338352522097610ff6565b0460065490610ff6565b049187519361067f8561104c565b8b8552898501904282528986019283526060860193845260808601948552805490680100000000000000008210156107d357906106c0918f82018155610f1a565b9590956107c257518555518c8501555160028401555184830155519087015585546106ec9088906110f6565b8655338952600a855283892088815460ff81161561078e575b5050506107156201518091610f4c565b905490831b1c0493338952528187205493600019850194851161077d575050519283526020830152604082015233907fb4caaf29adda3eefee3ad552a8e85058589bf834c7466cae4ee58787f70589ed90606090a26000805160206113958339815191525580f35b634e487b7160e01b88526011905286fd5b60ff191617905560095460001981146107b05788016009556107158838610705565b634e487b7160e01b8a5260118752838afd5b634e487b7160e01b8f528e8c52888ffd5b50634e487b7160e01b8f5260418c52888ffd5b6103b99150873d89116103bf576103b1818361107e565b85513d85823e3d90fd5b600c84916020606494519362461bcd60e51b85528401528201526b24b73b30b634b2103a34b2b960a11b6044820152fd5b5162461bcd60e51b8152602081840152601281860152710416d6f756e74206d757374206265203e20360741b6044820152606490fd5b9050346101e25760203660031901126101e257359160015483101561021f5750610211602092610f4c565b833461021f578060031936011261021f576108b2611368565b80546001600160a01b03198116825581906001600160a01b03167f8be0079c531659141344cd1fd0a4f28419497f9722a3daafe3b4186f6b6457e08280a380f35b5050346101575781600319360112610157576020906005549051908152f35b50503461015757806003193601126101575760209061029c610932610eff565b6024359061113f565b919050346101e257806003193601126101e257610956610eff565b6001600160a01b0316835260036020528083208054602435949085101561021f575060a09361098491610f1a565b508054926001820154926002830154916003840154930154938151958652602086015284015260608301526080820152f35b5050346101575760203660031901126101575760209181906001600160a01b036109de610eff565b1681526003845220549051908152f35b83915034610157576020806003193601126101e257813590610a0e611293565b33845260038152610a23858520548310610fba565b33845260038152610a3682868620610f1a565b5090815415610ce15760028201544210610cb057610a526112c3565b81549385670de0b6b3a7640000610a7361271061066760038801548a610ff6565b0481610a848487019283549061103f565b955555610a9285825461103f565b8155865163a9059cbb60e01b80825233828401908152602081018890527f00000000000000000000000000000000000000000000000000000000000000006001600160a01b0316929085908290819060400103818c875af1908115610ca65790610b02918a91610c8957506110b8565b84151580610c7d575b610b67575b88518781526020810186905260408101879052889033907f204fccf0d92ed8d48f204adb39b2e81e92bad0dedb93f5716ca9478cfb57de009080606081015b0390a260016000805160206113958339815191525580f35b8390610b758660055461103f565b600555895190815233848201908152602081018790529092839182908b90829060400103925af1908115610c73578791610c56575b5015610c1c57507f204fccf0d92ed8d48f204adb39b2e81e92bad0dedb93f5716ca9478cfb57de00939495610b4f91610be5846008546110f6565b6008557f106f923f993c2149d49b4255ff723acafa1f2d94393f561d3eda32ae348f72418251918583523392a29594938780610b10565b60649187519162461bcd60e51b8352820152601660248201527514995dd85c99081d1c985b9cd9995c8819985a5b195960521b6044820152fd5b610c6d9150833d85116103bf576103b1818361107e565b88610baa565b88513d89823e3d90fd5b50846005541015610b0b565b610ca09150863d88116103bf576103b1818361107e565b8b61037c565b8a513d8b823e3d90fd5b8360649187519162461bcd60e51b8352820152600c60248201526b14dd1a5b1b081b1bd8dad95960a21b6044820152fd5b8360649187519162461bcd60e51b8352820152601060248201526f105b1c9958591e481d5b9cdd185ad95960821b6044820152fd5b9050346101e257602080600319360112610efb57610d5b8235610d37611293565b33865260038352610d4c858720548210610fba565b33865260038352848620610f1a565b5091825415610ecd57610d6c6112c3565b612710610d7f8454600386015490610ff6565b0492600654610db2670de0b6b3a764000091610dac8584610da0848b610ff6565b0495019485549061103f565b96610ff6565b04905582151580610ec1575b610dd9575b8460016000805160206113958339815191525580f35b8183610e1792610deb8260055461103f565b600555865163a9059cbb60e01b8152339181019182526020820192909252909283918291604090910190565b0381887f00000000000000000000000000000000000000000000000000000000000000006001600160a01b03165af1908115610eb7577f106f923f993c2149d49b4255ff723acafa1f2d94393f561d3eda32ae348f7241939491610e81918791610ea057506110b8565b610e8d846008546110f6565b600855519283523392a238808080610dc3565b6103b99150843d86116103bf576103b1818361107e565b84513d87823e3d90fd5b50826005541015610dbe565b60649184519162461bcd60e51b8352820152600a602482015269139bdd081cdd185ad95960b21b6044820152fd5b8380fd5b600435906001600160a01b0382168203610f1557565b600080fd5b8054821015610f36576000526005602060002091020190600090565b634e487b7160e01b600052603260045260246000fd5b600154811015610f365760016000527fb10e2d527612073b26eecdfd717e6a320cf44b4afac2b0732d9fcbe2b7fa0cf60190600090565b600254811015610f365760026000527f405787fa12a823e0f2b7631cc41b3ba8828b3321ca811111fa75cd3aa3bb5ace0190600090565b15610fc157565b60405162461bcd60e51b815260206004820152600d60248201526c092dcecc2d8d2c840d2dcc8caf609b1b6044820152606490fd5b8181029291811591840414171561100957565b634e487b7160e01b600052601160045260246000fd5b8115611029570490565b634e487b7160e01b600052601260045260246000fd5b9190820391821161100957565b60a0810190811067ffffffffffffffff82111761106857604052565b634e487b7160e01b600052604160045260246000fd5b90601f8019910116810190811067ffffffffffffffff82111761106857604052565b90816020910312610f1557518015158103610f155790565b156110bf57565b60405162461bcd60e51b815260206004820152600f60248201526e151c985b9cd9995c8819985a5b1959608a1b6044820152606490fd5b9190820180921161100957565b906040516111108161104c565b608060048294805484526001810154602085015260028101546040850152600381015460608501520154910152565b6001600160a01b03166000908152600360205260408120805491929182101561125e576111759161116f91610f1a565b50611103565b90815115611259576006549060045490816111c6575b5050906080670de0b6b3a76400006111b96111c3946127106111b38651606088015190610ff6565b04610ff6565b049101519061103f565b90565b6111d26007544261103f565b90620151806111e86005549361016d8504610ff6565b0491808311611251575b50670de0b6b3a76400009182810292818404149015171561123d57506111b96112346111c3959461122e608095670de0b6b3a76400009561101f565b906110f6565b9394505061118b565b634e487b7160e01b81526011600452602490fd5b9150386111f2565b905090565b505090565b600454801561128d576005549061271091828102928184041490151715611009576111c39161101f565b50600090565b60008051602061139583398151915260028154146112b15760029055565b604051633ee5aeb560e01b8152600490fd5b6004548015611361576112d86007544261103f565b801561135d57620151806112f36005549261016d8404610ff6565b0490808211611355575b8115928315611311575b5050505042600755565b670de0b6b3a7640000938484029484860414171561100957611339611341916113499561101f565b6006546110f6565b60065561103f565b60055538808080611307565b9050806112fd565b5050565b5042600755565b6000546001600160a01b0316330361137c57565b60405163118cdaa760e01b8152336004820152602490fdfe9b779b17422d0df92223018b32b4d1fa46e071723d6817e2486d003becc55f00a2646970667358221220b046bb743ecdf92682bf43d5532b8a79d034be86b44b0e751c903db2b1c6a9f264736f6c63430008180033",
  "linkReferences": {},
  "deployedLinkReferences": {}
}