{
  "_format": "hh-sol-artifact-1",
  "contractName": "RewardEngine",
  "sourceName": "contracts/RewardEngine.sol",
  "abi": [
    {
      "inputs": [
        {
          "internalType": "address",
          "name": "_token",
          "type": "address"
        },
        {
          "internalType": "address",
          "name": "_staking",
          "type": "address"
        },
        {
          "internalType": "address",
          "name": "_merchantStaking",
          "type": "address"
        },
        {
          "internalType": "address",
          "name": "admin",
          "type": "address"
        }
      ],
      "stateMutability": "nonpayable",
      "type": "constructor"
    },
    {
      "inputs": [
        {
          "internalType": "address",
          "name": "owner",
          "type": "address"
        }
      ],
      "name": "OwnableInvalidOwner",
      "type": "error"
    },
    {
      "inputs": [
        {
          "internalType": "address",
          "name": "account",
          "type": "address"
        }
      ],
      "name": "OwnableUnauthorizedAccount",
      "type": "error"
    },
    {
      "anonymous": false,
      "inputs": [
        {
          "indexed": true,
          "internalType": "address",
          "name": "user",
          "type": "address"
        },
        {
          "indexed": false,
          "internalType": "uint256",
          "name": "cancelsThisWeek",
          "type": "uint256"
        }
      ],
      "name": "CancelRecorded",
      "type": "event"
    },
    {
      "anonymous": false,
      "inputs": [
        {
          "indexed": true,
          "internalType": "address",
          "name": "user",
          "type": "address"
        },
        {
          "indexed": false,
          "internalType": "uint256",
          "name": "newScore",
          "type": "uint256"
        }
      ],
      "name": "LoyaltyUpdated",
      "type": "event"
    },
    {
      "anonymous": false,
      "inputs": [
        {
          "indexed": true,
          "internalType": "address",
          "name": "previousOwner",
          "type": "address"
        },
        {
          "indexed": true,
          "internalType": "address",
          "name": "newOwner",
          "type": "address"
        }
      ],
      "name": "OwnershipTransferred",
      "type": "event"
    },
    {
      "anonymous": false,
      "inputs": [
        {
          "indexed": true,
          "internalType": "address",
          "name": "user",
          "type": "address"
        },
        {
          "indexed": true,
          "internalType": "address",
          "name": "invitedBy",
          "type": "address"
        }
      ],
      "name": "UserRegistered",
      "type": "event"
    },
    {
      "inputs": [],
      "name": "CANCEL_LIMIT_PER_WEEK",
      "outputs": [
        {
          "internalType": "uint256",
          "name": "",
          "type": "uint256"
        }
      ],
      "stateMutability": "view",
      "type": "function"
    },
    {
      "inputs": [],
      "name": "INVITE_DEPTH_MAX",
      "outputs": [
        {
          "internalType": "uint256",
          "name": "",
          "type": "uint256"
        }
      ],
      "stateMutability": "view",
      "type": "function"
    },
    {
      "inputs": [],
      "name": "LOYALTY_DECAY_PER_CANCEL_BPS",
      "outputs": [
        {
          "internalType": "uint256",
          "name": "",
          "type": "uint256"
        }
      ],
      "stateMutability": "view",
      "type": "function"
    },
    {
      "inputs": [],
      "name": "MAX_INVITE_BOOST_BPS",
      "outputs": [
        {
          "internalType": "uint256",
          "name": "",
          "type": "uint256"
        }
      ],
      "stateMutability": "view",
      "type": "function"
    },
    {
      "inputs": [],
      "name": "MAX_LOYALTY_BOOST_BPS",
      "outputs": [
        {
          "internalType": "uint256",
          "name": "",
          "type": "uint256"
        }
      ],
      "stateMutability": "view",
      "type": "function"
    },
    {
      "inputs": [],
      "name": "MAX_SENIORITY_BOOST_BPS",
      "outputs": [
        {
          "internalType": "uint256",
          "name": "",
          "type": "uint256"
        }
      ],
      "stateMutability": "view",
      "type": "function"
    },
    {
      "inputs": [],
      "name": "MAX_STAKING_BOOST_BPS",
      "outputs": [
        {
          "internalType": "uint256",
          "name": "",
          "type": "uint256"
        }
      ],
      "stateMutability": "view",
      "type": "function"
    },
    {
      "inputs": [],
      "name": "STAKING_DELAY_DAYS",
      "outputs": [
        {
          "internalType": "uint256",
          "name": "",
          "type": "uint256"
        }
      ],
      "stateMutability": "view",
      "type": "function"
    },
    {
      "inputs": [
        {
          "internalType": "address",
          "name": "user",
          "type": "address"
        },
        {
          "internalType": "address",
          "name": "merchant",
          "type": "address"
        },
        {
          "internalType": "uint256",
          "name": "paymentAmount",
          "type": "uint256"
        },
        {
          "internalType": "uint256",
          "name": "baseCashbackBps",
          "type": "uint256"
        },
        {
          "internalType": "uint256",
          "name": "paytknPriceUsd",
          "type": "uint256"
        }
      ],
      "name": "calculateCashback",
      "outputs": [
        {
          "internalType": "uint256",
          "name": "cashbackPAYTKN",
          "type": "uint256"
        },
        {
          "internalType": "uint256",
          "name": "effectiveRateBps",
          "type": "uint256"
        }
      ],
      "stateMutability": "view",
      "type": "function"
    },
    {
      "inputs": [
        {
          "internalType": "address",
          "name": "user",
          "type": "address"
        }
      ],
      "name": "getUserBoosts",
      "outputs": [
        {
          "internalType": "uint256",
          "name": "loyaltyBoostBps",
          "type": "uint256"
        },
        {
          "internalType": "uint256",
          "name": "seniorityBoostBps",
          "type": "uint256"
        },
        {
          "internalType": "uint256",
          "name": "inviteBoostBps",
          "type": "uint256"
        }
      ],
      "stateMutability": "view",
      "type": "function"
    },
    {
      "inputs": [
        {
          "internalType": "address",
          "name": "user",
          "type": "address"
        }
      ],
      "name": "getUserProfile",
      "outputs": [
        {
          "components": [
            {
              "internalType": "uint256",
              "name": "joinedAt",
              "type": "uint256"
            },
            {
              "internalType": "uint256",
              "name": "loyaltyScore",
              "type": "uint256"
            },
            {
              "internalType": "uint256",
              "name": "cancelsThisWeek",
              "type": "uint256"
            },
            {
              "internalType": "uint256",
              "name": "cancelWeekStart",
              "type": "uint256"
            },
            {
              "internalType": "uint256",
              "name": "inviteDepth",
              "type": "uint256"
            },
            {
              "internalType": "uint256",
              "name": "totalTransactions",
              "type": "uint256"
            },
            {
              "internalType": "address",
              "name": "invitedBy",
              "type": "address"
            },
            {
              "internalType": "bool",
              "name": "registered",
              "type": "bool"
            }
          ],
          "internalType": "struct RewardEngine.UserProfile",
          "name": "",
          "type": "tuple"
        }
      ],
      "stateMutability": "view",
      "type": "function"
    },
    {
      "inputs": [],
      "name": "merchantStaking",
      "outputs": [
        {
          "internalType": "contract MerchantStaking",
          "name": "",
          "type": "address"
        }
      ],
      "stateMutability": "view",
      "type": "function"
    },
    {
      "inputs": [],
      "name": "owner",
      "outputs": [
        {
          "internalType": "address",
          "name": "",
          "type": "address"
        }
      ],
      "stateMutability": "view",
      "type": "function"
    },
    {
      "inputs": [
        {
          "internalType": "address",
          "name": "",
          "type": "address"
        }
      ],
      "name": "profiles",
      "outputs": [
        {
          "internalType": "uint256",
          "name": "joinedAt",
          "type": "uint256"
        },
        {
          "internalType": "uint256",
          "name": "loyaltyScore",
          "type": "uint256"
        },
        {
          "internalType": "uint256",
          "name": "cancelsThisWeek",
          "type": "uint256"
        },
        {
          "internalType": "uint256",
          "name": "cancelWeekStart",
          "type": "uint256"
        },
        {
          "internalType": "uint256",
          "name": "inviteDepth",
          "type": "uint256"
        },
        {
          "internalType": "uint256",
          "name": "totalTransactions",
          "type": "uint256"
        },
        {
          "internalType": "address",
          "name": "invitedBy",
          "type": "address"
        },
        {
          "internalType": "bool",
          "name": "registered",
          "type": "bool"
        }
      ],
      "stateMutability": "view",
      "type": "function"
    },
    {
      "inputs": [
        {
          "internalType": "address",
          "name": "user",
          "type": "address"
        }
      ],
      "name": "recordCancel",
      "outputs": [],
      "stateMutability": "nonpayable",
      "type": "function"
    },
    {
      "inputs": [
        {
          "internalType": "address",
          "name": "user",
          "type": "address"
        }
      ],
      "name": "recordTransaction",
      "outputs": [],
      "stateMutability": "nonpayable",
      "type": "function"
    },
    {
      "inputs": [
        {
          "internalType": "address",
          "name": "user",
          "type": "address"
        },
        {
          "internalType": "address",
          "name": "invitedBy",
          "type": "address"
        }
      ],
      "name": "registerUser",
      "outputs": [],
      "stateMutability": "nonpayable",
      "type": "function"
    },
    {
      "inputs": [],
      "name": "renounceOwnership",
      "outputs": [],
      "stateMutability": "nonpayable",
      "type": "function"
    },
    {
      "inputs": [],
      "name": "staking",
      "outputs": [
        {
          "internalType": "contract PaytknStaking",
          "name": "",
          "type": "address"
        }
      ],
      "stateMutability": "view",
      "type": "function"
    },
    {
      "inputs": [],
      "name": "token",
      "outputs": [
        {
          "internalType": "contract PaytknToken",
          "name": "",
          "type": "address"
        }
      ],
      "stateMutability": "view",
      "type": "function"
    },
    {
      "inputs": [
        {
          "internalType": "address",
          "name": "newOwner",
          "type": "address"
        }
      ],
      "name": "transferOwnership",
      "outputs": [],
      "stateMutability": "nonpayable",
      "type": "function"
    }
  ],
  "bytecode": "0x60e0346200013c57601f6200146038819003918201601f19168301916001600160401b0383118484101762000141578084926080946040528339810103126200013c5760606200004f8262000157565b916200005e6020820162000157565b926200006d6040830162000157565b6001600160a01b03939092849162000086910162000157565b169384156200012357600080546001600160a01b0319811687178255604051968694859390928416907f8be0079c531659141344cd1fd0a4f28419497f9722a3daafe3b4186f6b6457e09080a3166080521660a0521660c0526112f390816200016d823960805181818161011c01526106b7015260a051818181610351015281816105f00152610c11015260c0518181816103d30152610b960152f35b604051631e4fbdf760e01b815260006004820152602490fd5b600080fd5b634e487b7160e01b600052604160045260246000fd5b51906001600160a01b03821682036200013c5756fe6080604052600436101561001257600080fd5b60e0600035811c9081630354adb214610c79578163037bef5914610c5c57816326428ff214610c405781634cf088d914610bfb57816359ad714014610bc55781636972f18314610b80578163715018a614610b27578163835baf3d14610b0a5781638c1c232614610aed5781638da5cb5b14610ac4578163987ee156146109b5578163abfbd2dc1461098c578163bbe15627146108ff578163c708a1fb1461027b57508063d1ff25581461025f578063e48543db14610243578063eaaf7aa014610226578063eb7594ca14610209578063f1f23c3b146101de578063f2fde38b146101505763fc0c546a1461010657600080fd5b3461014b57600036600319011261014b576040517f00000000000000000000000000000000000000000000000000000000000000006001600160a01b03168152602090f35b600080fd5b3461014b57602036600319011261014b57610169610e64565b610171611291565b6001600160a01b039081169081156101c557600054826bffffffffffffffffffffffff60a01b821617600055167f8be0079c531659141344cd1fd0a4f28419497f9722a3daafe3b4186f6b6457e0600080a3005b604051631e4fbdf760e01b815260006004820152602490fd5b3461014b57602036600319011261014b576102076101fa610e64565b610202611291565b611133565b005b3461014b57600036600319011261014b5760206040516127108152f35b3461014b57600036600319011261014b5760206040516103e88152f35b3461014b57600036600319011261014b57602060405160058152f35b3461014b57600036600319011261014b57602060405160078152f35b3461014b5760a036600319011261014b57610294610e64565b9061029d610e7a565b9060018060a01b0383166000526001602052604060002092604051906102c282610e90565b8454825260ff6006600187015496876020860152600281015460408601526003810154606086015260048101546080860152600581015460a0860152015460018060a01b03811660c085015260a01c1615159485848401526000956108df575b5060405163033060d960e41b81526001600160a01b0380831660048301526000929190602090829060249082907f0000000000000000000000000000000000000000000000000000000000000000165afa90811561053e576000916108ad575b506105bd575b50600091838101511515806105b3575b610570575b60009381015161054a575b506040516392a42fa960e01b81526001600160a01b03948516600482015293606090859060249082907f0000000000000000000000000000000000000000000000000000000000000000165afa93841561053e576000946104fc575b506127109485018086116104de5761041f8691606435610ecf565b04908501908186116104de57859161043691610ecf565b04908401908185116104de57849161044d91610ecf565b04908301908184116104de57839161046491610ecf565b04908201908183116104de57829161047b91610ecf565b049060036064350260643581046003146064351517156104de578083116104f4575b506104aa82604435610ecf565b04906305f5e100918281029281840414901517156104de576104d160409260843590610ee2565b9082519182526020820152f35b634e487b7160e01b600052601160045260246000fd5b91508261049d565b9093506060813d606011610536575b8161051860609383610ead565b8101031261014b57805160ff81160361014b57604001519285610404565b3d915061050b565b6040513d6000823e3d90fd5b608091935001516107d0908181029181830414901517156104de576005900491856103a8565b915062278d00610581835142610f02565b0491610bb892838102908082048514901517156104de57600c9004928084116105ab575b5061039d565b9250866105a5565b5080511515610398565b604051630f74de8b60e31b81526001600160a01b03918216600482015292959194929391929190600090859060249082907f0000000000000000000000000000000000000000000000000000000000000000165afa93841561053e5760009461077f575b5060009560005b85518110156106975761063b8187611109565b515115158061066e575b610652575b600101610628565b9661065d8887611109565b515181018091116104de579661064a565b50602061067b8288611109565b51015162093a80810181116104de5762093a8001421015610645565b506040516318160ddd60e01b8152939692959194509290916020826004817f00000000000000000000000000000000000000000000000000000000000000006001600160a01b03165afa91821561053e5760009261074b575b50816106fd575b50610388565b612710925082810291908015908304841417156104de5761071d91610ee2565b9061138891828102908082048414901517156104de570490808211610743575b806106f7565b90508561073d565b9091506020813d602011610777575b8161076760209383610ead565b8101031261014b575190876106f0565b3d915061075a565b9093503d806000833e6107928183610ead565b602082828101031261014b5781519067ffffffffffffffff821161014b57808301601f83850101121561014b57818301519067ffffffffffffffff821161089757604051936107e760208460051b0186610ead565b8285526020850193828201602060a0860283850101011161014b5793602085830101945b602060a0860282850101018610610829575050505050509286610621565b60a086858501031261014b576040518060a081011067ffffffffffffffff60a0830111176108975760a06020809483838095016040528a518152828b01518382015260408b0151604082015260608b0151606082015260808b0151608082015281520197019692505061080b565b634e487b7160e01b600052604160045260246000fd5b90506020813d6020116108d7575b816108c860209383610ead565b8101031261014b575187610382565b3d91506108bb565b90945061271090818102908082048314901517156104de57049385610322565b3461014b57602036600319011261014b57610100906001600160a01b039081610926610e64565b16600052600160205260ff6040600020805493600182015491600281015460038201546004830154916006600585015494015495604051998a5260208a015260408901526060880152608087015260a0860152811660c085015260a01c16151590820152f35b3461014b57602036600319011261014b576102076109a8610e64565b6109b0611291565b611041565b3461014b57602036600319011261014b57610100906109d2610e64565b906000816040516109e281610e90565b8281528260208201528260408201528260608201528260808201528260a08201528260c0820152015260018060a01b038092166000526001602052604060002060405192610a2f84610e90565b8154938481526001830154926020820193845260028101546040830190815260038201546060840190815260048301549160808501928352600660058501549460a0870195865201549660ff8960c0880197898b168952019860a01c1615158852604051998a525160208a01525160408901525160608801525160808701525160a0860152511660c084015251151590820152f35b3461014b57600036600319011261014b576000546040516001600160a01b039091168152602090f35b3461014b57600036600319011261014b5760206040516107d08152f35b3461014b57600036600319011261014b576020604051610bb88152f35b3461014b57600036600319011261014b57610b40611291565b600080546001600160a01b0319811682556001600160a01b03167f8be0079c531659141344cd1fd0a4f28419497f9722a3daafe3b4186f6b6457e08280a3005b3461014b57600036600319011261014b576040517f00000000000000000000000000000000000000000000000000000000000000006001600160a01b03168152602090f35b3461014b57602036600319011261014b576060610be8610be3610e64565b610f0f565b9060405192835260208301526040820152f35b3461014b57600036600319011261014b576040517f00000000000000000000000000000000000000000000000000000000000000006001600160a01b03168152602090f35b3461014b57600036600319011261014b57602060405160038152f35b3461014b57600036600319011261014b5760206040516113888152f35b3461014b57604036600319011261014b57610c92610e64565b90610c9b610e7a565b90610ca4611291565b6001600160a01b03831660009081526001602052604090206006015460a01c60ff16610e2a576000906001600160a01b038316151580610e02575b610dc8575b60405191610cf183610e90565b42808452600060208086018281526040808801848152606089019586526080890196875260a0808a018681526001600160a01b039b8c1660c08c0181815260019b8d018c81529e8e16808a52978c90529488209b518c559451998b0199909955905160028a01559451600389015594516004880155945160058701559251600695909501805497516001600160a81b03199098169590961694909417951515901b60ff60a01b16949094179092559091907f2138b9314634f9fdd5e49bee3eaf17ca557b6637524d0db759711c3bfcd3d8509080a3005b905060018060a01b038216600052600160205260046040600020015490600182018092116104de576005821115610ce45760059150610ce4565b506001600160a01b03831660009081526001602052604090206006015460a01c60ff16610cdf565b60405162461bcd60e51b8152602060048201526012602482015271105b1c9958591e481c9959da5cdd195c995960721b6044820152606490fd5b600435906001600160a01b038216820361014b57565b602435906001600160a01b038216820361014b57565b610100810190811067ffffffffffffffff82111761089757604052565b90601f8019910116810190811067ffffffffffffffff82111761089757604052565b818102929181159184041417156104de57565b8115610eec570490565b634e487b7160e01b600052601260045260246000fd5b919082039182116104de57565b60018060a01b0391826000921682526001602052604082209160405193610f3585610e90565b8354855260ff6001850154918260208801526002860154604088015260038601546060880152600660048701549660808901978852600581015460a08a0152015490811660c088015260a01c1615801560e08701526110285761271090818102908082048314901517156110145762278d0091610fb59104955142610f02565b0492610bb8938481029080820486149015171561101457600c90049380851161100c575b5051906107d091828102928184041490151715610ff857506005900490565b634e487b7160e01b81526011600452602490fd5b935038610fd9565b634e487b7160e01b83526011600452602483fd5b5092508291508190565b60001981146104de5760010190565b6001600160a01b03166000818152600160205260409020600681015460a01c60ff161561110557806005600192016110798154611032565b9055018054612710908181106110ba575b505060207f7436aa26fc2b6bc1749b7376cff3792645b88dccd34c2b51782c9ce97cb959809154604051908152a2565b9091606482018092116104de57827f7436aa26fc2b6bc1749b7376cff3792645b88dccd34c2b51782c9ce97cb9598093836020948455116110fd575b509161108a565b8155386110f6565b5050565b805182101561111d5760209160051b010190565b634e487b7160e01b600052603260045260246000fd5b6001600160a01b03166000818152600160205260408120600681015460a01c60ff161561128c5760038101805462093a80810180911161127857421015611269575b506002810190815490600382101561122d57611192600192611032565b809355019182546103e880820290828204148215171561101457602080947f7436aa26fc2b6bc1749b7376cff3792645b88dccd34c2b51782c9ce97cb95980969488946127107fb4398864ba0a7254c66d06c9c21c30530748d8620013addbaa2679688fea1f50950490818111600014611224576112109250610f02565b80955b55604051908152a2604051908152a2565b50508095611213565b60405162461bcd60e51b815260206004820152601460248201527310d85b98d95b081b1a5b5a5d081c995858da195960621b6044820152606490fd5b82600283015542905538611175565b634e487b7160e01b84526011600452602484fd5b505050565b6000546001600160a01b031633036112a557565b60405163118cdaa760e01b8152336004820152602490fdfea264697066735822122035700e3a45389aece29cd2288290ca487bc0db36eacd7e7cba20513bd365472164736f6c63430008180033",
  "linkReferences": {},
  "deployedLinkReferences": {}
}